:020000040000FA
:10000000080B0020C1010000A30F0000310E00000A
:1000100000000000000000000000000000000000E0
:100020000000000000000000000000003911000086
:10003000000000000000000035110000E511000084
:100040008D0900008F09000091090000950900004A
:10005000C9090000D3010000D9080000D301000045
:10006000D3010000B7190000DB080000D301000035
:10007000D7080000D5080000D30100004117000098
:10008000A9170000D3010000D30100007112000085
:100090003D160000D3010000D3010000B519000097
:1000A000330E0000D301000037110000D30100001F
:1000B000D3010000D3010000D3010000A10F000014
:1000C00000F002F800F050F80CA030C808382418EE
:1000D0002D18A246671EAB4654465D46AC4201D180
:1000E00000F042F87E460F3E0FCCB6460126334262
:1000F00000D0FB1AA246AB463343184790380000A5
:10010000B0380000103A02D378C878C1FAD8520744
:1001100001D330C830C101D504680C6070470000BD
:100120000023002400250026103A01D378C1FBD813
:10013000520700D330C100D50B60704710B5642959
:1001400002D100F0B5F810BD782902D100F0E6F830
:1001500010BD732902D100F04DFB10BD002010BD71
:100160001FB51FBD10B510BD00F088FB1146FFF78D
:10017000F7FF02F06DF900F0A0FB03B4FFF7F2FF08
:1001800003BC01F02EFC000070B505460C46164677
:1001900002E00FCC0FC5103E102EFAD2082E02D36B
:1001A00003CC03C5083E042E07D301CC01C5361F7E
:1001B00003E021782970641C6D1C761EF9D270BD95
:1001C0000748804707480047FEE7FEE7FEE7FEE7EF
:1001D000FEE7FEE704480549034A054B7047000067
:1001E0006D120000C100000008030020080B002071
:1001F000080300200FB4054910B503AA029800F0C7
:10020000FDFA10BC08BC04B018470000D000002064
:1002100070B5044685690068C10601D5302600E046
:100220002026C00707D070BD62683046A16890479D
:10023000206A401C20626D1EF6D570BD70B5044664
:1002400085690078C00707D170BD6268A168202069
:100250009047206A401C20626D1EF6D570BD70B5B7
:100260000C460546012A05D02878800600D5EA69A3
:10027000002302E0012305E05B1C934202D2E05C14
:100280000028F9D1A869E618C01AA861286AC01820
:1002900028622846FFF7BCFF04E06A682078A96856
:1002A000641C9047B442F8D32846FFF7C7FF70BDDF
:1002B000F7B5002575291068009914A611D0C0461D
:1002C000C046002802DA404211A608E000990968F9
:1002D0008A0701D50FA602E0490704D50EA601251D
:1002E00001E0C046C046009F0024243704E000F02F
:1002F00099FA30313955641C0028F8D12B46324622
:100300002146009800F00BFAFEBD0000000000003E
:100310002D0000002B0000002000000070B50446F6
:100320000D4621461068C046C0462188090502D501
:100330000F4A7A4402E00E4A7A440E3223460021E4
:10034000243305E006070009360F965D5E54491C0C
:100350000028F7D120780023000705D5702D03D0A1
:10036000002901D002231132204600F0D8F970BDD7
:100370001A360000F3B50446002081B02062204602
:10038000E1688847002872D0252802D06268A168F9
:10039000ABE0594F00267F442046E168884720287B
:1003A000054608DB312D06D2781920380078002860
:1003B00001D00643F0E7B00701D5042086430020B2
:1003C000E0610746A0612A2D0AD0284601F002FB11
:1003D000002827D0B8000019303D0090856119E051
:1003E0000298BA00121902C8916102902046E16891
:1003F0008847012F054617D1E06900281FDA202021
:1004000086431CE000980A218069484300994019FE
:10041000303888612046E1688847054601F0DAFAFD
:100420000028EFD1012F0AD02E2D08D12046E168F7
:1004300088470546202006437F1C022FC3DBA069A6
:10044000002803DA4042A06101200643F00701D0F2
:10045000102086436C2D0BD0682D09D04C2D3CD03C
:100460006A2D38D0742D38D07A2D36D016E040E081
:10047000E1682F4620468847B842054609D16C2FCF
:1004800029D001208002E1680643204688470546BE
:1004900004E06C2F1DD0FF2001300643002D28D032
:1004A00028464138192803D80120C00206432035C8
:1004B000204626602946029A1646FFF73FFE00288E
:1004C00010D001280BD0F61DF008C00008300290B3
:1004D00055E74020E1E78020D5E70020D3E7361D2F
:1004E00002964CE762682846A1689047206A401C43
:1004F00044E7206AFEBD0000DE350000F8B5042A9E
:100500002CD3830712D00B78491C0370401C521E59
:1005100083070BD00B78491C0370401C521E8307C5
:1005200004D00B78491C0370401C521E8B079B0F94
:1005300005D0C91ADF002023DE1B08C90AE0FFF737
:1005400023FEF8BD1D4608C9FD401C46B4402C439F
:1005500010C0121F042AF5D2F308C91A521EF0D493
:100560000B78491C0370401C521EEAD40B78491CBE
:100570000370401C012AE4D409780170F8BD01E041
:1005800004C0091F0429FBD28B0701D50280801CFF
:10059000C90700D00270704700290BD0C30702D0F2
:1005A0000270401C491E022904D3830702D5028031
:1005B000801C891EE3E70022EEE70022DFE700222D
:1005C00003098B422CD3030A8B4211D300239C4690
:1005D0004EE003460B433CD4002243088B4231D308
:1005E00003098B421CD3030A8B4201D394463FE09C
:1005F000C3098B4201D3CB01C01A524183098B42FC
:1006000001D38B01C01A524143098B4201D34B01E4
:10061000C01A524103098B4201D30B01C01A524147
:10062000C3088B4201D3CB00C01A524183088B42CE
:1006300001D38B00C01A524143088B4201D34B00B7
:10064000C01A5241411A00D2014652411046704729
:100650005DE0CA0F00D04942031000D3404253402E
:1006600000229C4603098B422DD3030A8B4212D3EE
:10067000FC22890112BA030A8B420CD38901921120
:100680008B4208D3890192118B4204D389013AD05D
:10069000921100E08909C3098B4201D3CB01C01A32
:1006A000524183098B4201D38B01C01A5241430945
:1006B0008B4201D34B01C01A524103098B4201D333
:1006C0000B01C01A5241C3088B4201D3CB00C01AA0
:1006D000524183088B4201D38B00C01A5241D9D2B8
:1006E00043088B4201D34B00C01A5241411A00D239
:1006F0000146634652415B10104601D34042002B35
:1007000000D54942704763465B1000D3404201B5B3
:100710000020C046C04602BD704770477047FFB515
:1007200004460D4681B0243000902168880604D527
:100730001022E0699143216000E00120A84201DD20
:10074000471B00E000270498A1697A191018081ABD
:10075000A0612078C00602D42046FFF759FD00268C
:1007600008E003986268A168805D9047206A401C99
:10077000761C206204988642F3DB2078C0060AD5F6
:100780002046FFF745FD06E06268A16830209047EB
:10079000206A401C206238467F1E0028F4DC07E0F7
:1007A00000986268A168405D9047206A401C206202
:1007B00028466D1E0028F3DC2046FFF73FFD207819
:1007C000000602D5022005B0F0BD0120FBE710B500
:1007D0004369002B02D0C046C04601E0FFF73FFD51
:1007E000012010BD1278014624310A7000224A709F
:1007F0000122ECE711680022D243E8E7084B70B50C
:100800000D467B4400F027F80446284601F04CFCD6
:10081000002802D00020C04370BD204670BD0000FB
:100820000F19000001468008081A02091018020A70
:100830001018020C1018C008820012185200891AF1
:1008400001E0401C0A390A29FBD2704701694A1CA1
:1008500002610878704700B58FB0029100210591C0
:100860000549019379440391114604906846FFF7C6
:1008700081FD0FB000BD0000E5FFFFFF754600F0F1
:1008800025F8AE46050069465346C008C0008546B7
:1008900018B020B5FFF79EFC60BC00274908B6469B
:1008A0000026C0C5C0C5C0C5C0C5C0C5C0C5C0C57F
:1008B000C0C5403D49008D46704710B50446C0464E
:1008C000C0462046FFF759FC10BD000000487047A5
:1008D000A402002070477047704770470F49932269
:1008E000D20511611146486000BF9321C90509680E
:1008F000202211402029F8D003219322D205D16073
:1009000000BF9321C9050968202211402029F8D091
:1009100000219322D2051161704700009966AA5503
:100920000146074A9323DB051A618A0892005A6040
:100930000122DA601A46906800221A6170470000AE
:100940009966AA55104A9323DB051A618208920022
:100950005A601A46916000BF9322D2051268202384
:100960001A40202AF8D002229323DB05DA6000BF68
:100970009322D205126820231A40202AF8D00022A0
:100980009323DB051A6170479966AA557047704733
:100990007047000010B50021A720C00500F03DFA07
:1009A00000280CD001200649087006480078401C39
:1009B000044908700021A720C00500F019F810BDF7
:1009C000940000208800002010B503211520800627
:1009D00000F023FA002807D0012004490870032101
:1009E0001520800600F004F810BD00002C00002047
:1009F000C26901238B401A43C261704710B500BF22
:100A00000020E349486000BF00BFE1498031086031
:100A100000BF00BFDE49086200BF00BF886200BFA0
:100A200000BFC86200BF00BF086300BF00BFD84955
:100A30008031C86000BF00BFD5494031086200BFA7
:100A400000BFD3498031086100BF00BFD0494031A9
:100A5000886200BF00BF086300BF00BF486300BFDB
:100A600000BF886300BF00BF486000BF00BF88614F
:100A700000BF00BF486100BF00BF292040060068DA
:100A800070218843292149060860084600680860EB
:100A900000BF00BF152080060068C008C0001521F7
:100AA0008906086008460068012108431521890667
:100AB000086000BF00BFA520C0050068C008C000D6
:100AC000A521C90508600846006801210843A52141
:100AD000C905086000BF00BF084600680721090279
:100AE0008843A521C905086008460068FF21013137
:100AF0000843A521C905086000BF00BF084600687B
:100B0000072109038843A521C90508600846006834
:100B1000012109030843A521C905086000BF00BFE2
:100B200008460068072109048843A521C905086013
:100B300008460068012109040843A521C905086089
:100B400000BF00BF15208006006807210903884305
:100B50001521890608600846006803210903084337
:100B600015218906086000BF00BFA720C0050068E6
:100B7000C008C000A721C905086008460068032115
:100B80000843A721C905086000BF00BF15208006E3
:100B90000068072109048843152189060860084672
:100BA000006803210904084315218906086000BF75
:100BB00000BFA720C0050068072109028843A721BC
:100BC000C905086008460068FF2101310843A721D4
:100BD000C905086000BF00BF084600680721090476
:100BE0008843A721C9050860084600680321090455
:100BF0000843A721C905086000BF00BF0846006878
:100C0000072109058843A721C9050860084600682F
:100C1000032109050843A721C905086000BF00BFDB
:100C200008460068072109068843A721C90508600E
:100C300008460068012109060843A721C905086084
:100C400000BF00BF53200006006870218843532175
:100C50000906086008460068302108435321090648
:100C6000086000BF00BF08460068072109068843E6
:100C70005321090608600846006801210906084357
:100C800053210906086000BF00BF0846006807211D
:100C900009058843532109060860084600680121B8
:100CA0000905084353210906086000BF02220121FB
:100CB000A720C00500F07AF802220821152080063E
:100CC00000F074F8052212020121A720C00500F0EF
:100CD00061F80522120208211520800600F05AF85A
:100CE0000021A720C005FFF783FE03211520800601
:100CF000FFF77EFE032000F055F9042000F052F9C2
:100D00000321084600F062F90321042000F05EF997
:100D1000A720C005806804218843A721C9058860F1
:100D200015208006806840084000401C1521890677
:100D30008860A520C005806804218843001DA52186
:100D4000C905886008468068082188430830A521C5
:100D5000C905886008468068102188431030A521A5
:100D6000C9058860084680684008400088605320B4
:100D700000068068402188435321090688600846A0
:100D800080682021884353210906886010BD000037
:100D90004000005010B5C36A07242402A343C36275
:100DA000C36A0C4614432343C36210BD00B513004D
:100DB00000F002FE05040B121C262D00036A0B43F3
:100DC0000362436A8B43436222E0036A0B4303627C
:100DD000436A0B4343621BE0036A8B430362436A2B
:100DE0008B434362836A8B43836211E0036A8B43C4
:100DF0000362436A0B434362836A8B43836207E067
:100E0000036A8B430362836A0B43836200E000BF83
:100E100000BF03690B43036100BD024690690123D3
:100E20008B401840002801D0012070470020FCE7CB
:100E30007047704700B503461846FFF74FFD00BDE9
:100E4000F7B581B00E4615460020009000241BE047
:100E5000A20001995018FFF763FD00900098000E62
:100E6000A100705400980002000EA100891948707A
:100E700000980004000EA10089198870A10089194A
:100E80000098C870601C84B2E917890F491989104D
:100E9000A142DDDCA20001995018FFF741FD00904E
:100EA000002709E0F8001821091A0098C840A1009D
:100EB0008919C855781C87B22846E917890F09187F
:100EC00089108900691AB942ECDCFFBDF7B581B021
:100ED0000E46144600200090002519E0A800305C62
:100EE0000006A900491C715C09040843A900891C7B
:100EF000715C09020843A900C91C715C0843009099
:100F0000AA00019950180099FFF71CFD681C85B2D2
:100F1000E117890F09198910A942DFDC0020009030
:100F200000270DE0A800C019305CF9001822511A02
:100F3000884000994018009000980090781C87B273
:100F40002046E117890F091889108900611AB942F2
:100F5000E8DCE117890F091889108900611A002956
:100F600005DDAA00019950180099FFF7EBFCFFBDC1
:100F70000A489321C9050861084600681021884382
:100F80009321C90508600020086100BF0348401C88
:100F900005210907886100BF704700009966AA55BE
:100FA00070477047C206D20E01219140014A11607C
:100FB0007047000000E100E0C206D20E012191401E
:100FC000014A11607047000000E100E010B5002800
:100FD00019DA1A4A03071B0F083B9B089B00D258DB
:100FE0008307DC0EFF23A3409A438B071B0E840765
:100FF000E40EA3401A43114B0407240F083CA40835
:10100000A4001A5118E00E4A03231B02D2188308C9
:101010009B00D2588307DC0EFF23A3409A438B0723
:101020001B0E8407E40EA3401A43054B032424023D
:101030001B198408A4001A5110BD00001CED00E02B
:1010400000E100E010B5002819DA1A4A03071B0F67
:10105000083B9B089B00D2588307DC0EFF23A3406C
:101060009A438B071B0E8407E40EA3401A43114BCF
:101070000407240F083CA408A4001A5118E00E4AE3
:1010800003231B02D21883089B00D2588307DC0E6F
:10109000FF23A3409A438B071B0E8407E40EA34053
:1010A0001A43054B032424021B198408A4001A5177
:1010B00010BD00001CED00E000E100E010B50028CC
:1010C00019DA1A4A03071B0F083B9B089B00D258EA
:1010D0008307DC0EFF23A3409A438B071B0E840774
:1010E000E40EA3401A43114B0407240F083CA40844
:1010F000A4001A5118E00E4A03231B02D2188308D9
:101100009B00D2588307DC0EFF23A3409A438B0732
:101110001B0E8407E40EA3401A43054B032424024C
:101120001B198408A4001A5110BD00001CED00E03A
:1011300000E100E0704770477047000070B504465A
:101140000D460B4E00BF00F047F8002800D003E02A
:101150003046761E0028F6D100BF06482043052100
:10116000090748620846456000F03EF870BD00007F
:10117000102700000000695A10B50446052000073A
:10118000846000F031F810BD014605221207106A94
:101190008008800002460A43104682B2024B1A437E
:1011A00005231B071A6270470000695A05210907C9
:1011B000086A0821084381B2024A11430522120736
:1011C000116270470000695A05210907C968014387
:1011D00005221207D160704705200007806AC0070A
:1011E000C00F704770470000F8B505200007006A7F
:1011F0008007000F19490F5805200007406A800733
:10120000800F002801D13C4607E005200007406A16
:101210008007800F022800D1114C0520000740688C
:101220000006C50D002D02D10E48046005E02946D8
:101230002046FFF7C4F90B490860052000078068C5
:101240000006C60D002E02D10748046005E03146B5
:101250002046FFF7B4F904490860F8BD0C000020EF
:10126000409C0000000000200400002070470000A7
:1012700010B5D4480078401ED2490870084600785E
:1012800000282BD1D04800783C2827DACE480078B7
:10129000401CCD4908706420CA49087000F03EFB2C
:1012A000CA48007800280AD0C9480078401EC849BA
:1012B000087008460078002801D1C4490870C54864
:1012C000007800280AD0C4480078401EC24908703F
:1012D00008460078002801D1BE490870BF48008840
:1012E000002811DDBD480088401EBC490880084622
:1012F0000088002808D1A720C005806840218843C5
:101300004030A721C9058860B5480088002804DD61
:10131000B3480088401EB2490880B24800780028CF
:101320001BD129204006C0688007C00F002814D0B8
:10133000AD480078002810D1AC480088401CAB496B
:10134000088008460088AA49884206DB00BFA948F1
:1013500005210907886100BF00BFA7480078012860
:101360000FD1A6480088401EA4490880084600887E
:10137000002806D10220A0490870FF20F5309F49BF
:10138000088000F095FE9E480078002811D09D4806
:101390000078401E9B49087008460078002816D146
:1013A00099480068401C9849086064209549087075
:1013B0000DE094480078642803D193480068002821
:1013C00005D064208F49087000208F490860A7204D
:1013D000C005C068C007C00F00281FD18B48007827
:1013E00000281BD18A48C078002817D18948008876
:1013F000401E884908800846008800281AD186487F
:101400000078002802D1012083490870AF208000B5
:10141000804908807648724908800BE07D48008842
:10142000AF218900884205D008467A490880704873
:101430006B49088015208006C068C006C00F0028D0
:1014400011D176480088401C7449088008460088FD
:10145000FF21F531884214DB01207149087000201A
:101460006E4908800DE06D480088002809D01520DD
:101470008006C068C006C00F002802D0002067495F
:10148000088000F013FD01F0E7FE02F073F800F0B1
:10149000E5FC6448007800280ED063480088401CB2
:1014A00061490880084600886049884204DD0020C0
:1014B0005C4908705C4908805D48007800282DDD93
:1014C0005C480088002815D159480078012807D1C8
:1014D000FF202D305749088000205549087009E049
:1014E00053480078022805D150485249088001200D
:1014F0004F4908704E480078022803DC4D480088A8
:10150000002806D101204A490870FF202D304949A2
:10151000088048480088401E4649088000F03AFF8D
:101520003B48C078002808D0A520C0058068042169
:101530008843A521C905886008E0A520C00580680A
:1015400004218843001DA521C90588603A48007818
:10155000C007C00F002808D0A520C0058068102152
:101560008843A521C905886008E0A520C0058068DA
:10157000102188431030A521C90588602E480078C5
:1015800002210840002805D12B480078042108409A
:10159000002808D0152080068068400840001521EA
:1015A0008906886008E015208006806840084000B1
:1015B000401C1521890688608D20C00500F048F880
:1015C00010BD00003C0000201E0000202000002074
:1015D000220000201F000020210000203E000020EB
:1015E0002E0000201C0000207D000020460000206E
:1015F000B80B00009A66AA559D0000204400002008
:10160000940000203D0000209000002025000020D4
:10161000A00000202A0000209500002040000020AB
:101620002D0000204F0000205C00002030750000DD
:101630006A000020420000204800002010B501F0A0
:10164000BFFE024800F004F810BD00000001804613
:10165000012141617047000010B50220FFF7B4FD81
:1016600008220021204800F043F8082200218D20A4
:10167000C00500F03DF8022240211B4800F044F86C
:10168000194800F04CF8022240218D20C00500F0DE
:101690003BF88D20C00500F042F81449124800F0D4
:1016A00048F8E121C9008D20C00500F042F80E483D
:1016B00000F03AF81420FFF77FFC8D20C00500F001
:1016C00033F81320FFF778FC02211420FFF7BAFC4F
:1016D00002211320FFF7B6FC034800F02CF88D2000
:1016E000C00500F028F810BD0001804620BF0200B0
:1016F00010B505231B07D96203680C24A3430360BC
:1017000003681343036010BD10B503684224A3436C
:10171000036003680C4614432343036010BD016853
:1017200049084900016070470168202211430160A7
:101730007047416070470168802211430160704723
:1017400010B58920C00500690007000F1349086023
:1017500008460068400808608920C005006A1049F2
:1017600008600E480068030000F026F90705060A25
:101770001315151415000EE001200A4908700AE03F
:101780008920C00500F043F8C4B2204601F08CFF68
:1017900001E000E000BF00BF10BD000030000020ED
:1017A000340000209F000020704710B500F064F85E
:1017B00000F030F810BD0000FFB581B004461546BA
:1017C0001E460A9FA06980098001A061A169284680
:1017D000304338430143A16104490968080902996B
:1017E000FEF7EDFEA06005B0F0BD00000400002093
:1017F000C16A10229143C1627047C168012211433E
:10180000C1607047C16802221143C1607047014640
:101810000868704738B54B24E401002003460322D2
:10182000214600908920C005FFF7C6FF0820FFF77A
:10183000CBFC8920C005FFF7DBFF8920C005FFF73F
:10184000DCFF8920C005FFF7DDFF00BF022008494B
:10185000886300BF00BFC86300BF03210F20FFF7EC
:101860002DFC0F2001218140024A116000BF38BDCC
:101870004000005000E100E038B54B24E4010020B6
:10188000034603222146009045200006FFF794FFFF
:101890001020FFF799FC00BF08200249C86100BF73
:1018A00038BD0000C00000504160704710B50446CC
:1018B00000200E49087001200D49087005200D49CF
:1018C000087021468920C005FFF7EEFF00BF0748DA
:1018D0000078002803D1074800780028F7DC0020B2
:1018E000024908700249087010BD00009F000020E6
:1018F0001F00002021000020054806490860064816
:101900008F21C90548610020024908607047000026
:101910009966AA5500058047AA55AA550548064963
:10192000086006488F21C905486100200249086007
:10193000704700009966AA5500058047AA55AA5528
:1019400009490A4A11608F21C90509680C2291438F
:101950008F22D205116011460968014311600021F0
:10196000024A1160704700009966AA550005804739
:101970000449054A11608F21C905486000211160A2
:10198000704700009966AA55000580470748084936
:1019900008608F20C0050068FF21090288438F215D
:1019A000C905086000200249086070479966AA5579
:1019B000000580477047704730B47446641E257830
:1019C000641CAB4204D3635D5B00E31830BC184772
:1019D0001D46F8E730380A2801D201207047002060
:1019E000704700BFFEE7000010B501F04BFD044852
:1019F000007801F083FD01200249087010BD00004D
:101A0000480000201D000020014600200878000248
:101A10004A78104300028A7810430002CA781043C3
:101A20007047000030B502460B46144C2079002167
:101A30000CE0904203D10224114D2C7030BD441CA7
:101A4000E0B23C2800DB00204C1CE1B29942F0DB04
:101A50000A4C207900210CE0904203D10224084D69
:101A60002C70EBE7002800DC3C20441EE0B24C1C4C
:101A7000E1B29942F0DB00BFE0E700006100002026
:101A80009E000020F0B587B004460020069065490E
:101A9000E01C085C02900298062832D006DC0300A5
:101AA000FFF78AFF061316191C272BBC0E287DD0C2
:101AB00006DC08284DD00A284ED00B2877D194E0B8
:101AC0001C2875D02B28F9D1A1E000F019FCA6E064
:101AD00001F052FBA3E000F05DFBA0E05149A01D26
:101AE000085C5149087000220321084601F0FAFE03
:101AF00095E001204D49087091E001204C490870A3
:101B00008DE04849201D085C00020A46611D515CB9
:101B100008430390002518E0A01D4019801C41498E
:101B2000085C00020590A01D4019C01C095C0598C6
:101B3000081805903B490919891D481900F080F8DB
:101B400004900598001D281885B203988542E3DBB0
:101B500065E0FFF749FF62E00026002E04D1FF2078
:101B60000130344908800AE0012E03D17002314966
:101B7000088004E0022E02D170022E490880294913
:101B8000A01D085C2C490860084600680002086037
:101B90002449E01D085C2849096808432649086073
:101BA00008460068000208601E4902E024E035E0B3
:101BB0001CE020460830085C1F49096808431E499C
:101BC000086008460068000208601649204609308F
:101BD000085C19490968084317490860002001F0AA
:101BE00095FD0A201549087019E018E00D490919FA
:101BF000881D00F0D7FF12E00A49A01D0F5CE01D10
:101C0000085C01903846019901F0CEFD07E00549D6
:101C1000A01D0F5C384600F0C5FA00E000BF00BF11
:101C200007B0F0BD0C010020C3000020C10000205F
:101C3000C2000020C6000020C8000020CC00002008
:101C4000FEB5044626786778A0780502E07840194A
:101C500085B2304600F086FA0190019840000749AD
:101C600040184078B84201D00020FEBD2A46211D10
:101C7000304600F035F800900098F6E7443900004F
:101C800030B5002312E000210DE0002207E000241F
:101C900001E0651CECB22F2CFBDB551CEAB2272AB5
:101CA000F5DB4D1CE9B20329EFDB5B1C8342EAD371
:101CB00030BD000070B505460E463146284600F09E
:101CC00045FF0446002C02D001200449087021463B
:101CD000092000F003FE012070BD000095000020E7
:101CE000F8B505460E461746012D04D0032D08D041
:101CF000092D12D10BE03946304600F03BF804467E
:101D00000CE03946304600F00DF8044606E039464E
:101D10003046FFF7CFFF044600E000BF00BF20467B
:101D2000F8BD000070B504460D462946204600F077
:101D300010FF084908600846016807A0FEF75AFA34
:101D400004480168032000F0C5FE0120084908701E
:101D500070BD0000B0000020415050207365742019
:101D60007765696768743A256C64200D0A00000085
:101D7000AC00002070B505460C46342200210D4809
:101D800001F01CF9224629460A48801C01F0F0F8AF
:101D90007920084908704C703422074801F0BCFCD7
:101DA00001F02CF922462946012000F05BFE0120BB
:101DB00070BD0000D80000200400001C10B50446CF
:101DC000342221492148FFF73BF8012220492148CC
:101DD000FFF736F8002C15D034211B48FEF7EBFB3B
:101DE00004221D491A48FEF789FB7920164908701C
:101DF0003422164801F090FC04221549154801F0E0
:101E00008BFC1CE01048007879280AD034210E4859
:101E1000FEF7D1FB79200C49087034220B4801F001
:101E20007BFC0B480078792809D004220A4908482D
:101E3000FEF764FB01220649064801F06DFC01F043
:101E4000DDF801F02BF910BDD80000200400001CC3
:101E5000A00000200002001CA4000020A720C00554
:101E6000C068C006C00F002812D00E480078401C81
:101E70000C49087008460078962812DB0A4800785A
:101E8000022108430849087000200649087008E04C
:101E90000020044908700448007802218843024960
:101EA0000870704760000020480000200F4800784C
:101EB000012819D1A720C005C068C007C00F00289D
:101EC00012D00B480068012809DC0A48C0780028B5
:101ED00005D10120084908700848094908800020F8
:101EE0000249087002490860704700009400002011
:101EF00090000020A000002096000020B80B0000F9
:101F00002E000020F8B507460D460026EC78002C80
:101F100001D10020F8BD052001F0F0FA6946204605
:101F200000F086FEC6B2324621460DA0FEF762F9E9
:101F300031460F2000F0CEFD684601780E2000F0FB
:101F40002DFD68460078002802DD01200B4908704D
:101F5000A01BE870002001F0D1FA68460078D9E7AC
:101F60006665656473203D2025640909616C7265AE
:101F7000616479203D2025640D0A00009D00002049
:101F800070B50546342242494248FEF759FF01F038
:101F900035F801F0C7F800246AE0A00021183C4899
:101FA000801C0818C078002800D15FE0A00021182C
:101FB0003748801C08180079012800D056E0A0009E
:101FC00021183348801C405C334989790722521A12
:101FD000012191400840002806D1A00021182C487A
:101FE000801C405C002840D1A00021182848801C9B
:101FF000081840782849C978884236D1A10062186B
:102000002349891C511888780521FFF70BFDA00092
:1020100021181F48801C081880781F4909798842B8
:1020200023D1A00022181A48801C11180522284626
:10203000FEF764FA01201949087019490870A000D8
:1020400021181348801C405C00280DD10021A000FD
:1020500022180F48801C1018017134220C490D48B9
:1020600001F05AFB01F00EFA04E000BF601CC4B29C
:102070000A2C92DB00BF0B480078022803D1012014
:102080000849087002E000200649087070BD000091
:10209000D80000200400001C610000205000002037
:1020A000510000209E00002001460020C0437047E0
:1020B000A720C005C0688006C00F002809D10120F4
:1020C000124908701248007801210843104908702D
:1020D0000EE000200D4908700D480078C007C00FC1
:1020E000002805D00A4800784008400008490870D8
:1020F00006480078002807DDA720C0058068042175
:102100008843A721C905886070470000520000205D
:102110004800002000BF45221206126A20231A4000
:10212000002AF8D04522120650600A280BD100BFC1
:1021300045221206126A20231A40002AF8D00D22E6
:1021400045231B065A60704730B502460020002325
:1021500005E01578521C2C18E0B25C1CA3B28B422F
:10216000F7DB30BD70B5054600F012F806460024D6
:1021700007E060000549085CA84200D103E0601C4C
:10218000C4B2B442F5DB00BF204670BD4439000044
:102190000620704710B5002422460321022001F0DA
:1021A000A1FB10BD10B5044646480078844205D016
:1021B000214645A0FEF71EF84248047046480078C4
:1021C00000287ED12300FFF7F7FB07051524253DE6
:1021D0005E06750000BF0120404908701920404983
:1021E000088000203F4908703F49087002203F499D
:1021F000087065E001203949087096203849088048
:1022000000203849087038490870022037490870A2
:1022100056E000BF02203149087000203049088094
:102220003049087001203049087002202F49087099
:1022300001202F4908702F480078202108432D499C
:1022400008703DE0032025490870002024490880DB
:10225000244908700120244908700220234908708D
:10226000012025490870234800782021884321490E
:10227000087000201E49087020480078002801D10D
:1022800000F06EFC1CE00420144908701748007828
:10229000022808D100201249088001201149087045
:1022A00000201149087001201049087000F066FCF8
:1022B00006E006E005200949087000F05FFC00BF59
:1022C00000BF10BDB5000020776966692073746196
:1022D00074653A25640D0A007D0000201C00002072
:1022E000780000207A0000207C000020810000207F
:1022F0004900002048000020B40000206A000020AF
:1023000010B500240B480078002808D10021204691
:1023100001F028F9C4B201200649087004E0012147
:10232000204601F01FF9C4B222460321002001F02B
:10233000D9FA10BDC400002070B504462546E01748
:10234000800F401980108000201A05D1642120469A
:10235000FEF73FF9002906D1FF2191312046FEF713
:1023600038F9002901D1012070BD0020FCE7A5212A
:10237000C90589680907C90FC943C9000822114066
:102380000846A521C905896891430143A522D205C4
:102390009160704710B52848007800283AD029206D
:1023A0004006C0688007C00F002809D1A520C005DD
:1023B0008068082188430830A521C905886029E084
:1023C0001E480078002808D0A520C0058068082194
:1023D0008843A521C90588601CE0194800780028B9
:1023E00009D0A520C0058068082188430830A521B0
:1023F000C90588600EE013480078401E1149087036
:1024000008460078002805D1FFF7B1FF0E48007894
:102410000C4908700D48007802280BDAA520C00589
:102420008068082188430830A521C90588600220FA
:102430000649087010BD00007B0000207C000020D1
:102440007A0000209C0000207800002081000020FD
:10245000C848FFF715FC992400256F2601F0E2F823
:102460000820FFF76DFA1920C001FFF781FAFFF786
:102470008DFAFFF741FAFFF751FAFEF7BFFAFFF7BF
:10248000EBF800F07FFFFFF790F9C820FFF7F8FBAB
:10249000B9A0FDF7AFFEBAA1BEA0FDF7ABFEC2A189
:1024A000C4A0FDF7A7FEC7A1CBA0FDF7A3FE0020A7
:1024B000FFF784FC01F066F9A720C005C068C007DB
:1024C000C00F002802D10120C64908700020C6496B
:1024D0000870C64908604CE101F078F90020C44951
:1024E0000870C4480078002856D00020C149087000
:1024F00000F018FEC0480078002815D1A720C005BC
:1025000080684006C00F00280ED000F030FBBB48AA
:102510000078002808D100F023FBB9480078002893
:1025200002D10120B6490870B6480078A8420ED002
:10253000B448007800F0E2FFB248057801780E2038
:1025400000F02CFAAF480178AFA0FDF753FEB34876
:102550000078022809D1B2A0FDF74CFE20210E2000
:1025600000F01CFA0120AD490870A348007801284A
:1025700005D1B1480078012801D100F00BFBAF482C
:102580000078032808D1AE480078012804D1022041
:10259000AB49087000F076FFAA48008800280AD1ED
:1025A000A948C078002806D10120A749C870042294
:1025B000A64801F0B1F8A6480078002821DDA2481D
:1025C000C078002806DD00209F49C87069489D49F1
:1025D000088009E09C48C078002805D101209A496C
:1025E000C8700020974908809748C17899A0FDF7E6
:1025F00001FE00209649087004229349934801F097
:102600008BF898480078012807D102209549087076
:1026100000F0B4FA0120944908709248007802282A
:102620001ED18648007801281AD190A0FDF7E2FD5E
:102630007D20C000FFF724FB0B20FFF7BFFB192014
:102640004001FFF71DFB00BF8D4805210907886188
:1026500000BF002084490870824908700320087078
:102660008848007801280DD100208649087086A08E
:10267000FDF7C0FD01208949C87003208849087012
:102680008849087088480079B04205D086480679A4
:102690008248FFF775FC0CE084480078002808D0D9
:1026A0005848007802210840002802D102207C49C5
:1026B00008707F480078002812D000207C490870FC
:1026C0007C4800787549C870022076490870084631
:1026D0000278724972480078FFF714FC4949087083
:1026E0006F480078002820DD6E4802786B496C48FE
:1026F0000078FFF707FC434908700020684908701C
:10270000404801786CA0FDF775FD3E480078022135
:102710000840002803D001206449087002E000202E
:102720006249087000206C49088029204006C06872
:102730008007C00F002809D10124A720C0058068A8
:1027400040218843A721C905886012E0012C10D1DF
:10275000A720C00580684006C00F002809D10024CA
:10276000A720C0058068402188434030A721C905C3
:102770008860B1E6B80B000020200D0A00000000C0
:1027800043463033332D5530315F33362E312E30C2
:1027900000000000202056657273696F6E3A202594
:1027A00073200D0A000000003230323131323230F5
:1027B000000000002020646174653A202573200D1C
:1027C0000A000000643137716474726B62756D7950
:1027D000736E7566000000005049443A202573204E
:1027E0000D0A0000800000209400002090000020CE
:1027F0001E000020690000207D0000206A000020EB
:10280000230000204800002073656E64206572720A
:102810006F723A2564200D0A000000004900002074
:1028200073656E64204552524F525F4C414E5F4378
:102830004F4E4E540D0A00007F0000201C00002067
:102840001D0000202E000020A00000200002001C1F
:102850002D0000206C6F636B5F6B65793A256264B5
:10286000200A0000950000202400002020726573DB
:10287000657420746865206D637520330D0A00004F
:102880009A66AA559600002066656564206F6E659D
:10289000206F6E206B657920210D0A005300002007
:1028A0005000002051000020610000204F00002057
:1028B000AC000020B00000202B2B2B2B2B2B2B2B24
:1028C0002B2B2B2B2B2B20666565645F6572726F3B
:1028D000723A2564200D0A005C00002070B50446A1
:1028E0000D46002616480078012800D170BD21460B
:1028F000304600F037FE06460121304600F032FE39
:1029000006460021304600F02DFE064601213046E5
:1029100000F028FE0646002D05D10021304600F0CB
:1029200021FE064604E00121304600F01BFE06466B
:1029300032460321072000F0D5FF0120D6E7000032
:10294000C000002070B504460E46002512480078ED
:10295000012800D170BD2146284600F003FE05463F
:102960000421284600F0FEFD05460021284600F01F
:10297000F9FD05460121284600F0F4FD05463146E3
:10298000284600F0EFFD05462A460321072000F007
:10299000A9FF0120DEE70000C000002070B5054659
:1029A0000C4600262D480078012800D170BD29462C
:1029B000304600F0D7FD06460521304600F0D2FD36
:1029C00006460021304600F0CDFD0646FF2020439C
:1029D000FF280AD10121304600F0C4FD0646E1B2CD
:1029E000304600F0BFFD064630E01D4820431C493C
:1029F000884210D10221304600F0B4FD0646200482
:102A0000010E304600F0AEFD0646E1B2304600F061
:102A1000A9FD06461AE00421304600F0A3FD064653
:102A2000210E304600F09EFD06462002010E304683
:102A300000F098FD06462004010E304600F092FD9D
:102A40000646E1B2304600F08DFD064632460321CF
:102A5000072000F047FF0120A8E70000C000002089
:102A6000FFFF0000F7B50646144600271848007817
:102A7000012800D1FEBD3146384600F073FD0746FF
:102A80000021384600F06EFD07462546E017000E8F
:102A900040190004010E384600F064FD0746E017B7
:102AA000000E401900120002201AC1B2384600F090
:102AB00059FD074622463846019900F041FD074678
:102AC0003A460321072000F00DFF0120D2E7000065
:102AD000C000002070B505460C4600261A48007854
:102AE000012800D170BD2946304600F03BFD064666
:102AF0000221304600F036FD06460021304600F047
:102B000031FD06460421304600F02CFD0646210E1C
:102B1000304600F027FD06462002010E304600F048
:102B200021FD06462004010E304600F01BFD06463E
:102B3000E1B2304600F016FD06463246032107207A
:102B400000F0D0FE0120CDE7C00000200246107842
:102B5000704710B503460C461846FEF755FF10BDEA
:102B600010B5002203211C2000F0BCFE10BD10B5E2
:102B7000002203212B2000F0B5FE10BD10B500206F
:102B80000349087000220321042000F0ABFE10BDB1
:102B9000C100002010B5002203210E2000F0A2FE8B
:102BA00010BD000010B504462078012819D1124844
:102BB000007800280ED1607810490870A07848701D
:102BC000E07888702079C87060790871A0794871C0
:102BD000E079887102200A4908700AA0FDF70AFB13
:102BE00005E00DA0FDF706FB042005490870002054
:102BF0000E49087010BD00009E00002061000020FA
:102C00006A0000206765745F74696D655F73756342
:102C1000636573730D0A00006765745F74696D65A1
:102C20005F6572726F720D0A0000000023000020C1
:102C3000FEB506460C4600200290354656480190E7
:102C40003746322000900120544908700020544932
:102C500008700120534908702820FFF711F8002060
:102C60002070012050490870294650A0FDF7C2FA93
:102C700070E000F0ABFD00BF002055490870A720B0
:102C8000C005C068C006C00F002803D100F0F8F8E6
:102C9000019003E06D1C7F1C052001900198002825
:102CA0000FD14CA0FDF7A6FA20780421084320702C
:102CB0004F48007808434E49087001203849087091
:102CC0004BE0FF202D30FEF7DBFF6D1E7F1EA7209F
:102CD000C005C068C006C00F002826D045A0FDF77B
:102CE00089FA322000901CE0062000F0A3F800983A
:102CF000401EC0B200906420FEF7C2FFA720C005AE
:102D0000C068C006C00F002800D10DE00098002860
:102D100007D13DA0FDF76EFA20780221084320700C
:102D20001BE000980028DFD100BF207800280CD0DD
:102D3000002D0AD00298401CC0B2029002980228CE
:102D400002DA0020207097E707E000202070029050
:102D500027490870002D8CDC00BF2E480078002821
:102D600006DD20780121084320702BA0FDF742FAF0
:102D7000062000F05FF800200A49087001202A4967
:102D8000087000202949088004490870012028495A
:102D90000870F01BFEBD0000140500005E0000205E
:102DA000580000205B000020970000202B2B2B2BCD
:102DB0002B2B2B2B20666565645F6572726F72200A
:102DC00023232323232323232025640D0A0000002B
:102DD0001E0000206D6F746F72206E6F74206D6F17
:102DE0007665206F7220646574206572720D0A002A
:102DF0004800002069725F6572726F7220726561AF
:102E000064790D0A000000006972206572726F72A9
:102E10000D0A000052000020666F6F642065727218
:102E20006F72200D0A0000004A0000204C000020B4
:102E30004E000020042804D005280CD006281CD100
:102E400012E0A521C905896849084900491CA52245
:102E5000D205916012E0A521C90589684908490099
:102E6000A522D205916009E0A521C9058968490814
:102E70004900A522D205916000E000BF00BF704765
:102E8000F8B52B4D002600270420FFF7D3FF00BF25
:102E9000C824214627A0FDF7ADF915E00A20FEF76A
:102EA000EFFE53200006C0688007C00F002803D043
:102EB00024A0FDF79FF909E0601E84B2002C03D125
:102EC00024A0FDF797F90025002CE7D100BF2AE0E8
:102ED00053200006C0688007C00F002812D10A20C6
:102EE000FEF7CEFE53200006C0688007C00F002802
:102EF00008D1701C86B2062E04DD18A0FDF77AF901
:102F000000260127002F09D053200006C068800743
:102F1000C00F002802D000272846F8BD0A20FEF77F
:102F2000AFFE681E85B2002DD2D12846F5E700001D
:102F300014050000646574206F75743A693A25645D
:102F4000200D0A004D4F544F525F444554200D0A46
:102F500000000000693D300D0A00000066656564F0
:102F60002064657420616E64206F7574200D0A0002
:102F7000F0B505460E4613462A463446002D01D0CC
:102F8000002E01D10020F0BDA24202D9E0189042EB
:102F900008D2002103E0605C5054481C81B2994281
:102FA000F9DB09E0194605E0481E205C4F1ED055AC
:102FB000481E81B20029F7DC2846E4E730B5034615
:102FC0000C461946002B00D130BD01E00C70491CA5
:102FD0001046551EAAB20028F8D11846F4E701465B
:102FE0000022002900D17047002200E0521C0B781B
:102FF000491C002BFAD11046F5E700007CB53422BD
:1030000017491848FDF71CFF17A0FDF7F3F8002437
:1030100023E0A00021181248801C08180079A100A4
:1030200062180F49891C5118C97800910190A000BD
:1030300025180B48801C28188378A00025180848FC
:10304000801C28184278A00025180548801C415D86
:103050000AA0FDF7CFF8601CC4B20A2CD9DB7CBDF6
:10306000D80000200400001C72656164206665655C
:10307000645F696E666F3A20200D0A002530325871
:103080002D253032582D253032582D253032582DEF
:103090002530325820200D0A0000000010B5012212
:1030A0000C490D48FDF7CCFE0A4801780BA0FDF74E
:1030B000A1F8084841780CA0FDF79CF805488178F4
:1030C0000EA0FDF797F80348C17812A0FDF792F81B
:1030D00010BD0000A00000200002001C76616C3AC8
:1030E000256420200D0A00006C65645F73776974A5
:1030F00063683A256420200D0A000000666F6F6443
:103100005F6C65645F7377697463683A2564202037
:103110000D0A00006C6F636B5F6B65793A25642064
:10312000200D0A0010B5074883784278017806A080
:10313000FDF760F8034843790279C17808A0FDF7EC
:1031400059F810BD61000020536574204441544576
:103150003A2025642D25642D2564202000000000E0
:10316000202054494D453A2025643A25643A256487
:1031700020200D0A000000003EB500240020009031
:103180000190029025A0FFF72AFF85B22A4623A1CD
:10319000204600F0D5F9C4B222A0FFF720FF85B287
:1031A0002A4620A1204600F0CBF9C4B222A0FFF7A6
:1031B00016FF85B22A4620A1204600F0C1F9C4B20C
:1031C0001FA0FFF70CFF85B22A461DA1204600F084
:1031D000B7F9C4B21CA0FFF702FF85B22A461AA1B4
:1031E000204600F0ADF9C4B219A0FFF7F8FE85B291
:1031F0002A4617A1204600F0A3F9C4B215A0FFF794
:10320000EEFE85B22A4613A1204600F099F9C4B219
:1032100022460321012000F065FB3EBD7B22702287
:103220003A220000643137716474726B62756D7993
:10323000736E756600000000222C2276223A22006E
:1032400033362E312E300000222C226D223A00001F
:10325000300000007D0000004148007800283AD08E
:1032600015208006C0680007C00F002833D13D48F4
:103270000088642862DB3C48C07800285ED13B4867
:10328000007800285AD153200006806840218843E6
:10329000403053210906886035480088401E344973
:1032A000088008460088002848D15320000680681E
:1032B000402188435321090688607D20C0002C49A5
:1032C00008800120294908702A482B4908800120DC
:1032D0002A49087032E02248007800280DD02148A1
:1032E0000088642809DA2048C078002805D1012028
:1032F000224908701F48204908800020184908709A
:103300001F480078002807D153200006806840211C
:103310008843532109068860154800887D21C9002B
:10332000884208D00846124908801248124908808D
:1033300001201249087000200C49087008480078E4
:10334000002805D007480088401C0649088006E090
:1033500004480088002802DD0020024908807047E8
:103360002C0000209A000020A000002089000020EE
:1033700086000020B80B00002E00002097000020DF
:103380002400002010B507210148FDF714F910BDF5
:103390006100002070B504460D462846FEF7CCFFBC
:1033A000002804D0601E012801D1012100E0002185
:1033B000601E024A105C0818C0B270BD6B0000208D
:1033C00010B52D484079401C2B49487101202B49EC
:1033D0000870294840793C284CDB00202649487178
:1033E00008460079401C087125480078012802D160
:1033F000022023490870204800793C283ADB00204D
:103400001D4908710846C078401CC8700846C0783D
:1034100018282FDB0020C87008468078401C887070
:1034200008468079401C887108468079072801DDAC
:1034300001208871104A1278F523DB00D1180E4A5A
:103440005078FFF7A7FF04460B488078A04210DDB4
:1034500001200949887008464078401C4870084699
:1034600040780C2805DD0120487008460078401C93
:10347000087000BF10BD000061000020690000203E
:103480004900002010B590B034221A491A48FDF7BF
:10349000D7FC18484078322802D9322015494870A4
:1034A00000240DE0A200A318124A921C9918A20051
:1034B000A2186B46D0180522FDF720F8601CC4B294
:1034C0000C4948780521FDF77AF8A042EAD8094866
:1034D0004078012805DC012200211046FFF7C2FADE
:1034E00005E00448427869460120FFF7BBFA10B0B6
:1034F00010BD0000D80000200400001C10B50446D8
:10350000002C06D0012C09D0042C0CD0052C14D191
:103510000EE000210420FFF715FA0EE0012104203F
:10352000FFF710FA09E003210420FFF70BFA04E08B
:1035300004210846FFF706FA00BF00BF10BD0000D7
:10354000F8B504460E461546054807192A46314681
:103550003846FFF70DFD601984B22046F8BD000023
:1035600020020020024B1A181170431C98B27047B9
:10357000200200202748007800281FD05320000692
:103580008068202188432030532109068860224822
:103590000078401E2049087008460078002815D1A0
:1035A0001C4908705320000680682021884353215D
:1035B000090688600A201849087007E053200006B1
:1035C00080682021884353210906886013480078C9
:1035D00001281ED1532000068068402188434030D6
:1035E0005321090688600E480078401E0C49087077
:1035F0000846007800280CD10849087053200006BE
:1036000080684021884353210906886028200449A6
:1036100008707047970000208300002024000020DD
:103620008400002010B500BF99200F49C86300BF77
:1036300000BF086000BF00BF486000BF00BF8860D7
:1036400000BF00BFC86000BF00BF086100BF03200B
:10365000FDF79AFDFDF7AAFD00210846FDF76EFD76
:103660000020FDF789FD10BDC00100500B4909681D
:103670000B4A126891420FD008490A6809498A42E8
:1036800002D38739054A116004490968087803495B
:103690000968491C014A116070470000BC00002005
:1036A000B80000201A02002012490968124A126864
:1036B000891A01291CD0104909680E4A12689142E2
:1036C00006D90D4909680B4A1268891A87290FD251
:1036D00009490A6809498A4202D38739064A1160B2
:1036E00005490968087004490968491C024A1160C3
:1036F00070470000BC000020B80000201A02002023
:1037000010B504462046FEF7D1F810BD10B50446AA
:10371000FDF72EFC10BD0000F0B5A3B004460E4628
:1037200017460025002002900190802103A8FCF795
:1037300044FFE005C00D02901148844201D301907E
:1037400002E0072080060190802203A90198FDF77E
:1037500077FB002507E0725D0298411C029103A9E6
:103760000A54681C85B2BD42F5DB0198FDF762FB87
:10377000802203A90198FDF7A9FB23B0F0BD00004A
:103780000002001C04480549086005490860FF2044
:10379000044908707047000093010020B800002021
:1037A000BC000020C30000200122064B1A70002834
:1037B00002D1002905D004E0322902DB0A22024BA3
:1037C0001A7070477D0000207E00002070B5002434
:1037D000002509E0FFF74AFF36490A880988491C95
:1037E000344B19803449885432480088872803D2E2
:1037F00000F09AF80028EDDC2E480088072800DA4F
:1038000070BD3FE02C48005D552802D0601C84B29A
:1038100038E02949601C085CAA2802D0601C84B2E8
:1038200030E02549A01C085C002802D0A01C84B20E
:1038300028E02149201D085C0502601D085CC01DB0
:10384000401985B28E2D02D9E01C84B21AE01948C5
:103850000088001BA84200DA19E06A1E91B2164ADD
:103860001019FEF771FC6119491E134A515C884218
:1038700002D0E01C84B205E02046FEF703F960198F
:1038800084B200BF0B480088001B0728BADA00BFCB
:1038900008480088001B074908800846008800285F
:1038A00006DD05480119034802880348FFF760FB5D
:1038B00000BFA5E7A80000200C01002070B5044659
:1038C0000D46002C01D0002D00D170BD03E0207802
:1038D000FFF716FF641C2846691E8DB20028F6D13A
:1038E00000BFF2E7F8B505460E46144600275520FE
:1038F0000C490870AA20487008468670C5702012CE
:1039000008714C71E01D84B2601E81B20548FEF75B
:103910001BFC0746601E03490F5421460148FFF770
:10392000CDFFF8BD1A020020044800680449096868
:10393000884201D0012070470020FCE7B800002039
:10394000BC00002001000302040409010E050F025F
:1039500030313233343536373839414243444546C5
:1039600040305800303132333435363738396162BF
:1039700063646566403078000400000800000000C1
:10398000000000020001000010000000AC3900003F
:1039900000000020D800000004010000843A00006C
:1039A000D8000020300A000020010000006CDC027A
:1039B000006CDC02000000000090D003000000005A
:1039C00000000000006CDC020000000000000000AD
:1039D000000000000000BC020000B80B0000000066
:1039E00000000000000000006464C80000002C011A
:1039F000F4010000000000000000000000000000D2
:103A0000000000000028640000000000000000002A
:103A1000000000006400001F1C1F1E1F1E1F1F1E31
:103A20001F1E1F0000000001000000000001000A2E
:103A30002800E80300000000000000000100000072
:103A4000000000000000000019000000000000005D
:103A500079010100000000000000000000000000EB
:103A60000000000000000000000000000000000056
:103A70000000000000000000000000000000000046
:043A80000000000042
:04000005000000C136
:00000001FF
